:100000000C9484000C9498000C9498000C94980024
:100010000C9498000C9403030C9423030C94980004
:100020000C9498000C9498000C9498000C949800F0
:100030000C9498000C9498000C9498000C949800E0
:100040000C9498000C9498000C9498000C949800D0
:100050000C9498000C9498000C9498000C949800C0
:100060000C9498000C943E050C9498000C94980005
:100070000C9498000C9498000C9498000C949800A0
:100080000C9498000C9498000C9498000C94980090
:100090000C9498000C9498000C9498000C94980080
:1000A0000C9498000C9498000C9498000C94980070
:1000B0000C9498000C9498000C9498000C94980060
:1000C0000C9498000C9498000C9498000C94980050
:1000D0000C9498000C9498000C9498000C94980040
:1000E0000C9498000C9478020C9486020C943C02B8
:1000F0000C9494020C945A020C9469020C944B02D6
:100100000C94CA010C942E0211241FBECFEFD1E231
:10011000DEBFCDBF00E00CBF22E0A0E0B2E001C036
:100120001D92A831B207E1F70E9473050C940106F5
:100130000C940000EAE0F1E080818E6F8083EBE0B8
:100140008081817080832FEF89EF90E02150804083
:100150009040E1F700C0000080E3809317028081A7
:10016000806380838FE891E00197F1F700C0000081
:100170008081886080838FE891E00197F1F700C06B
:1001800000008081877F80838FE19EE40197F1F7F3
:1001900000C000008081886080838FE891E0019733
:1001A000F1F700C000008081877F80838FE193E0BA
:1001B0000197F1F700C000008081886080838FE89C
:1001C00091E00197F1F700C000008081877F808374
:1001D0008FE19EE40197F1F700C0000080818170FB
:1001E000808380E2809317028081806280838FE821
:1001F00091E00197F1F700C0000080818860808362
:100200008FE891E00197F1F700C000008081877FBF
:10021000808387EC90E00197F1F700C0000008951B
:10022000EBE0F1E0908191709083282F207F209364
:1002300017029081922B9083AFE8B1E01197F1F70C
:1002400000C00000908198609083AFE8B1E0119702
:10025000F1F700C000009081977F9083AFE8B1E094
:100260001197F1F700C00000908191709083829502
:10027000807F809317029081892B80838FE891E0A3
:100280000197F1F700C00000808188608083AFE8AB
:10029000B1E01197F1F700C000008081877F808373
:1002A00087EC90E00197F1F700C000000895EBE0C3
:1002B000F1E0908191709083282F207F2093170286
:1002C0009081922B94609083AFE8B1E01197F1F7A1
:1002D00000C00000908198609083AFE8B1E0119772
:1002E000F1F700C000009081977F9083AFE8B1E004
:1002F0001197F1F700C00000908191709083829572
:10030000807F809317029081892B846080838FE89F
:1003100091E00197F1F700C0000080818860808340
:10032000AFE8B1E01197F1F700C000008081877F4E
:10033000808387EC90E00197F1F700C000000895FA
:100340000F931F93CF93DF9380911402803119F4A0
:1003500080EC0E94100180911402803229F481E027
:100360000E9410011092140281E080931602C4E0F2
:10037000D1E005E018E080911602809582B9809165
:100380001602880F809316028FE99FE00197F1F71C
:1003900000C0000080B18F3E38F0C15061F7DF919E
:1003A000CF911F910F9108958FE19EE40197F1F78E
:1003B00000C00000E0B1EF3E68F7E73DE0F4E73B46
:1003C00009F4DEC098F5ED3709F4E9C0F0F4E73739
:1003D00009F4F4C0EB37F1F68CE08093150283E466
:1003E0000E945701809114028F5F8093140280B1A4
:1003F0008B37E9F3CFCFE75DE83160F6F0E088278F
:10040000ED5FF94F8F4F0C94C405EE3719F69AE063
:100410009093150281E40E945701809114028F5F2E
:100420008093140280B18E37E9F3B4CFED3B09F429
:1004300098C0EE3B09F486C0EB3B09F0ABCF99E0E6
:100440009093150289E30E945701809114028F5FF7
:100450008093140280B18B3BE9F39CCFD0931502BB
:1004600081E30E945701809114028F5F80931402F0
:1004700080B18E3EE9F38ECF94E09093150284E331
:100480000E945701809114028F5F8093140280B103
:100490008D3EE9F37FCF87E08093150287E30E94CA
:1004A0005701809114028F5F8093140280B18B3EBC
:1004B000E9F370CF9EE0909315028AE20E94570103
:1004C000809114028F5F8093140280B1873EE9F31C
:1004D00061CF82E08093150282E30E9457018091F0
:1004E00014028F5F8093140280B18E3DE9F352CFE6
:1004F0000093150285E30E945701809114028F5FDB
:100500008093140280B18D3DE9F344CF109315021E
:1005100088E30E945701809114028F5F8093140238
:1005200080B18B3DE9F336CF1092150280E30E9433
:100530005701809114028F5F8093140280B1873D30
:10054000E9F328CF93E09093150283E30E945701CB
:10055000809114028F5F8093140280B18E3BE9F387
:1005600019CF86E08093150286E30E94570180919F
:1005700014028F5F8093140280B18D3BE9F30ACFA0
:100580008FE08093150283E20E945701809114024C
:100590008F5F8093140280B1873BE9F3FBCE8BE041
:1005A0008093150282E40E945701809114028F5FAC
:1005B0008093140280B18D37E9F3ECCE8DE0809307
:1005C000150284E40E945701809114028F5F80938A
:1005D000140280B18737E9F3DDCE80680C941001F6
:1005E0008DB18F7C8DB98EB180638EB9EAE6F0E073
:1005F00080818360808380818C6080838DB3806301
:100600008DBB789408952F932FB72F938F939F933B
:100610008CB180719CB1907220911202281739F030
:100620002091130289130DC02F5F20931302809332
:100630001202909311029F918F912F912FBF2F91B2
:1006400018952150F2CF2F932FB72F938F939F930D
:100650009CB190718CB1807220911102281739F0F1
:1006600020911302981769F02F5F20931302909343
:100670001202809311029F918F912F912FBF2F9182
:1006800018952150F2CF2FEF83ED90E32150804059
:100690009040E1F700C00000389A40982FEF80EEBC
:1006A00090E0215080409040E1F700C00000409A67
:1006B00025ED2A95F1F700003898409A8AE68A9548
:1006C000F1F700C0309BFECF8FE891E00197F1F782
:1006D00000C00000ECE0F2E098E0309BFECF25ED9A
:1006E0002A95F1F700008081880F808330991EC021
:1006F000915099F7319692E0E131F90769F78091CD
:100700000C0290910D02982789279827809309025F
:1007100090930A0280910E0290910F0298278927E8
:100720009827809307029093080208958160808340
:1007300010920B02309BDCCF80910B028F5F809375
:100740000B028AE18A95F1F700C080910B02853691
:1007500088F3CECFFF920F931F93CF93DF93CDB744
:10076000DEB72C970FB6F894DEBF0FBECDBF80E882
:100770000E9410018FE19EE40197F1F700C0000094
:1007800088E40E9457018DE30E9457018E01095FA2
:100790001F4F4AE0B8018091090290910A020E941D
:1007A000CC058091090290910A020A971CF480E31B
:1007B0000E945701F12CF80101900020E9F7CF01C8
:1007C000801B910B0297F816190608F480C08EE280
:1007D0000E945701F80101900020E9F73197E01BD2
:1007E000F10BEC0FFD1F86810E94570185E20E94EC
:1007F000570180E20E9457018FE19EE40197F1F7D3
:1008000000C0000084E50E9457018DE30E9457015B
:1008100080910E0287FF0CC08DE20E9457018091EB
:100820000702909108029F77809307029093080235
:100830004AE08E010F5F1F4FB8018091070290912F
:1008400008020E94CC0580910702909108020A9745
:100850001CF480E30E945701F12CF8010190002064
:10086000E9F7CF01801B910B0297F8161906B8F132
:100870008EE20E945701F80101900020E9F73197BC
:10088000E01BF10BEC0FFD1F80810E9457018FEDE3
:100890000E94570183E40E945701F8010190002053
:1008A000E9F7EA959E2F901B092F80E20E945701DD
:1008B0000F5F0630D1F72C960FB6F894DEBF0FBE4F
:1008C000CDBFDF91CF911F910F91FF900895F80157
:1008D000EF0DF11D80810E945701F3946CCFF80158
:1008E000EF0DF11D80810E945701F394B6CF87E888
:1008F00080937A0080E680937C00EEE7F0E08081D0
:10090000816080830895EF92FF920F931F93CF939E
:10091000DF93CDB7DEB72E970FB6F894DEBF0FBECC
:10092000CDBF80917A00806480937A0080917A00B4
:1009300084FFFCCF80917900809306024AE0BE01DB
:10094000685F7F4F90E00E94CC058091060284365C
:1009500008F451C08E01085F1F4F7E012BE0E20EAC
:10096000F11CF80181918F010E9457010E151F059E
:10097000C1F780E20E94570186E50E9457018AE391
:100980000E94570180E20E94570180910602F4E61E
:100990008F9FC0011124809304029093050263E3AA
:1009A00070E00E94B005CB016093020290930302B5
:1009B0004AE0BE016F5F7F4F0E94CC058091060226
:1009C000833368F189810E9457018EE20E945701AA
:1009D0008A810E9457018B810E9457012E960FB683
:1009E000F894DEBF0FBECDBFDF91CF911F910F9165
:1009F000FF90EF9008958A3050F080E30E945701F5
:100A000088850E94570189850E945701B2CF80E3F3
:100A10000E94570180E30E9457018885F5CF8650D8
:100A20008D3258F480E30E9457018EE20E945701F4
:100A300089810E9457018A81CFCF80E30E945701AC
:100A40008EE20E94570180E30E9457018981C4CF42
:100A50009093C5008093C40088E98093C1000895F5
:100A60009091C00095FFFCCF8093C60008958091BF
:100A7000C00087FFFCCF8091C60008951F920F929F
:100A80000FB60F9211240BB60F922F933F934F93F3
:100A90005F936F937F938F939F93AF93BF93EF93E6
:100AA000FF930E94370580930002FF91EF91BF9161
:100AB000AF919F918F917F916F915F914F913F91F6
:100AC0002F910F900BBE0F900FBE0F901F90189597
:100AD000279A84B5836084BD84B5806884BD85B55C
:100AE000856085BD08958FE081B98FEF82B90E943E
:100AF0009A008CE20E9410018FE00E94100186E0B3
:100B00000E94100181E00E9410018FE39FE1019794
:100B1000F1F700C0000078940E94F0020E9468057E
:100B20001092130287E690E00E9428050E94A0011F
:100B30008091130287BD0E9443030E94AA0380ECA8
:100B40000E9410018FE19EE40197F1F700C00000C0
:100B50000E9477040E94830485E30E943005E6CF5B
:100B6000AA1BBB1B51E107C0AA1FBB1FA617B707D3
:100B700010F0A61BB70B881F991F5A95A9F78095EF
:100B80009095BC01CD010895EE0FFF1F881F8BBF0C
:100B90000790F691E02D1994BB274A3031F4992340
:100BA00022F4BDE2909581959F4F0C94D805BB2708
:100BB000FB015527AA27880F991FAA1FA41710F019
:100BC000A41B83955051B9F7A05DAA3308F0A95D25
:100BD000A193009779F7B111B1931192CB010C94C5
:100BE000F105DC01FC01672F71917723E1F7329762
:100BF00004C07C916D9370836291AE17BF07C8F3F8
:100C00000895F894FFCF9402CA01CA01CA0186026E
:100C1000CA0178026902CA01CA01CA01CA01CA012D
:100C2000CA01CA01CA015A02CA01CA01CA014B0259
:060C3000CA013C022E0285
:00000001FF
